:1000000012C0189518951895189518951895189563
:100010001895189518951895189518951895189578
:100020001895189518958FE58DBFC8E3E0E24E2E20
:1000300084E08EBFD4E0F4E05F2EA89584B7082E4C
:10004000877F84BF88E1992781BD91BDEEEFF3E002
:10005000A0E6B0E088278D933197E9F76624F894FD
:100060008FEF81BBB89AA09AA19A86E886B980E4FE
:1000700087B97894339AC09AE1E0F0E083D0C098D1
:10008000E1E0F0E07FD088B391E0892788BB379A20
:1000900007B1007F056007B993D0A3E6B0E08D9368
:1000A0009C933798E2E9F4E0EBD1E3E6F0E0D190FD
:1000B000E080FF24002722D1A7D1EDE0F0E0A5E603
:1000C000B0E09AD0E6E9F4E0DBD1E5E6F0E0B8D0C4
:1000D00042D1EDE0F0E0A5E6B0E08ED0EAE9F4E050
:1000E000CFD1E5E6F0E0ACD08FD1EDE0F0E0A5E6D1
:1000F000B0E082D0E5E6F0E0B3D0A9E6B0E0DD9272
:10010000EC92009169004AE07DD0A0E6B0E00C934B
:1001100015D0009160004AE0049FA1E6B0E00C9287
:100120000091690040916100041BA2E6B0E00C93CD
:10013000809162008093600010D0A5CFA898A99A02
:10014000E8E7F1E0A0E6B0E08C919927A2E3B0E007
:1001500050D08AE090E025D00895A89AA998E8E7C1
:10016000F1E0A0E6B0E08C919927A2E3B0E041D0A5
:100170008AE090E016D008950895BF86DBCFE6EDC3
:10018000FD87FFEF88EE93E00CD03197D9F7089503
:100190003197F1F70895689462F80895E89462F849
:1001A0000895EF93FF93EE27E82BE92B31F0E0ED74
:1001B000F7E03197F1F70197D1F7FF91EF910895AB
:1001C000369A3699FECF369A3699FECF84B195B1DC
:1001D0000895C89531960020089591E005C092E0F9
:1001E00003C094E001C098E0F4DF0D929A95E1F726
:1001F0000895E80FF91FF1CF94E081918D939A95BE
:10020000E1F70895FF93881BF9E0001FFA9511F4B8
:10021000FF910895881F841B18F4840F8894F5CFEC
:100220000894F3CFB7FE089590E8B91611F4D0FE04
:1002300008959FEFD91AE90AF90A09F40395089578
:10024000D190E190F19001910895219131914191E6
:1002500051910895502F2D2D3E2D4F2D612F089532
:10026000EFDF992711278F2D880F80E8F82A802F3C
:10027000881F08F41FEF41F08F57082F07FD04C0B7
:10028000003240F08FEF01C08827982FD82EE82E3B
:10029000F82E09C08FE1801B082FF694E794D794BD
:1002A00097950A95D1F7112351F09095D094E09449
:1002B000F09481E0980F8827D81EE81EF81E0F2DB5
:1002C000FE2CED2CD92E0895652F90E8440F551F74
:1002D0005927990F47956078102F90E8FF0C001F61
:1002E0000927990FF794107800380895FF0C90E8CB
:1002F0009027110F9795F794092F08951127BD2C7A
:10030000DE2CEF2CF02E0EE1FF2039F4FE2CED2C2C
:10031000DB2CBB240850C2F752C032F00A95BB0C4C
:10032000DD1CEE1CFF1CF9CF7DDFE0CF2DEC3CEC9B
:100330004CEC5DE366270FC083DF8CDFDD24EE2409
:1003400090E8F92E0FE307C080DF05C0222733278E
:1003500040E251E46627552351F1002381F1B4DFD7
:1003600071F11627005850580894050B18F407FD32
:1003700003C025C007FD23C0469537952795F69401
:10038000E794D79425D0FF202AF0DD0CEE1CFF1C4B
:10039000015073F09D2D969548F0DD203AF4EE2043
:1003A0002AF491E0D90E9927E91EF91E9FCF07C0C4
:1003B0009FE7092FF92A9FEFD92EE92E0895DD2412
:1003C000EE24FF240027112708950FE79FEFF2CFB7
:1003D0009F929924AA24BB2488E1D216E306F4064E
:1003E00028F0D21AE30AF40A089401C08894991CF0
:1003F000AA1CBB1CDD0CEE1CFF1C8A9571F7D92CC6
:10040000EA2CFB2C9F9008955FDFD1F05038C1F0AB
:1004100016270058952F90580894091F12F418F4C5
:100420000EC008F00DC00DD0FF202AF0BB0CDD1C63
:10043000EE1CFF1C02C0039513F0F4DE57CFB8CFBB
:10044000BECF9F92FF92EF928D2DFF24EE24DD24EC
:10045000BB2493E0849F1001829FB00CD11CE21C4E
:10046000F31C839FD00CE11C2224F21C9A9531F0DE
:10047000BD2CDE2CEF2CFF248F91ECCF9F900895A4
:10048000A8DE202DA6DE302DA4DE402DA2DE502DCC
:0E0490000895CDCC9C4000007A44000020412D
:00000001FF
